:020000040800F2
:10000000C0060024390300086F150008D713000844
:100010006D150008310600082518000800000000D2
:100020000000000000000000000000007315000840
:10003000330600080000000071150008751500085F
:100040005303000853030008530300085303000838
:100050005303000853030008530300085303000828
:100060005303000853030008530300085303000818
:100070005303000853030008530300085303000808
:1000800053030008530300085303000853030008F8
:1000900053030008530300085303000853030008E8
:1000A00053030008530300085303000853030008D8
:1000B00053030008530300085303000853030008C8
:1000C00053030008530300085303000853030008B8
:1000D00053030008530300085303000853030008A8
:1000E00053030008530300080000000053030008F6
:1000F0005303000853030008530300085303000888
:100100005303000853030008530300085303000877
:100110005303000853030008530300085303000867
:100120005303000853030008530300085303000857
:100130005303000853030008530300085303000847
:1001400000000000000000000000000000000000AF
:100150005303000853030008530300085303000827
:100160005303000853030008530300085303000817
:100170005303000853030008530300080000000065
:1001800053030008530300085303000853030008F7
:1001900053030008530300085303000853030008E7
:1001A00053030008530300085303000853030008D7
:1001B00053030008530300085303000853030008C7
:1001C00053030008530300085303000853030008B7
:1001D00053030008530300085303000853030008A7
:1001E0005303000853030008530300085303000897
:1001F0005303000853030008530300085303000887
:100200005303000853030008530300085303000876
:100210005303000853030008530300085303000866
:1002200053030008530300085303000800000000B4
:1002300053030008530300080000000053030008A4
:100240005303000853030008530300085303000836
:100250005303000853030008530300085303000826
:100260005303000853030008530300085303000816
:100270005303000853030008530300080000000064
:100280005303000853030008530300080000000054
:10029000000000005303000800F002F800F03CF8F2
:1002A0000AA090E8000C82448344AAF10107DA45D1
:1002B00001D100F031F8AFF2090EBAE80F0013F0E7
:1002C000010F18BFFB1A43F001031847F416000092
:1002D00014170000103A24BF78C878C1FAD8520722
:1002E00024BF30C830C144BF04680C6070470000B0
:1002F0000023002400250026103A28BF78C1FBD82F
:10030000520728BF30C148BF0B6070471FB501F0CE
:1003100041FB1FBD10B510BD00F058F81146FFF7A6
:10032000F5FF01F007FB00F076F803B4FFF7F2FFEA
:1003300003BC00F07DF800000948804709480047E9
:10034000FEE7FEE7FEE7FEE7FEE7FEE7FEE7FEE785
:10035000FEE7FEE704480549054A064B70470000E2
:100360007916000899020008C0000024C006002485
:10037000C0020024C00200244FF0000200B5134662
:1003800094469646203922BFA0E80C50A0E80C50B5
:10039000B1F12001BFF4F7AF090728BFA0E80C5066
:1003A00048BF0CC05DF804EB890028BF40F8042B5F
:1003B00008BF704748BF20F8022B11F0804F18BFCC
:1003C00000F8012B7047704770477047754600F082
:1003D0002BF8AE4605006946534620F007008546D7
:1003E00018B020B5FFF7B6FFBDE820404FF000067B
:1003F0004FF000074FF000084FF0000BAC46ACE8A0
:10040000C009ACE8C009ACE8C009ACE8C00921F0FB
:1004100007018D46704710B50446AFF300802046B3
:10042000BDE81040FFF781BF00487047100000246E
:1004300001491820ABBEFEE726000200704700000D
:10044000BCB51248019000F0B9F801AC104D042081
:100450002146A8470F48019021460420A84740F2B2
:10046000B340019004202146A8470B480190214643
:100470000420A84748F22900019004202146A847FB
:100480000648019021460420A847BCBD050058003D
:10049000491800083C80EC00420E010018802C0036
:1004A000F8B59FED401AB4EEC10AF1EE10FA0ADB7E
:1004B0009FED3D2AB4EEC20AB0EE401AF1EE10FAFA
:1004C000C8BFB0EE421AB2EE040A012121EE001AB2
:1004D0004FF0000C40F69903B6EEC11A81EE000A07
:1004E000BCEEC01A11EE102A09E001FB02F6A6F6D6
:1004F00098069E4206D3490089B20CF1010CBCF16A
:10050000090FF2D901EE101A4FF47A750523B8EEEF
:10051000C11A20EE010AB3EE091A80EE010A9FED1E
:10052000231A20EE011ABCEEC11A11EE101AB1FB0B
:10053000F5F202FB151601E016460D46B1B2B1FB0D
:10054000F3F2A9B2B1FBF3F102EB8204341B01EB2D
:100550008100281A20430004EED0BCEEC00A10EE41
:10056000103A02E0A8B256084508B2B2F00708BF38
:1005700015F00100F6D0D0000E4F00EBC334A8B246
:1005800048F2010101EBC005094800EB0C560A488E
:10059000B8472046B8472846B84730463946BDE8F0
:1005A000F840084700000C420080894500007A446A
:1005B0003C808C00271800081C80EC002DE9F043DB
:1005C00087B04FF000081848184CCDF81880012269
:1005D0000168102541F00801016010210068012721
:1005E00000F0080001900198204600F013F98A21DC
:1005F000002220464FF08A0900F00CF9CDE902579D
:1006000002AD0497032620460596294600F03CF8E3
:1006100020462946CDE90297CDE9048600F034F85A
:1006200007B0BDE8F08300BFE0440258000C025858
:10063000FEE7704710B5044604E04FF47A7000F00E
:1006400005F8013C002CF8D110BD000070B56FF02A
:1006500005010A4C0E1A2168B0B24FF6FA754862CD
:10066000204600F05FFE206800E0466AB1B2A94271
:10067000FBD30248BDE8704000F098BE7000002433
:10068000EFF3108072B6FEE72DE9FC4F5E4A0A27B1
:100690005E4C02444FEAB223A04208BF0927092B4F
:1006A00038BF4FEAB2274FF0000C009701274FF0F8
:1006B000000E00269EE007FA06F912EA090B00F088
:1006C00094804A6802F00308A8F1010ABAF1010F08
:1006D00013D80324856804FA0EF325EA0303CD68D2
:1006E00005FA0EF52B4383604368C2F3001523EA35
:1006F0000903B5402B43436004E0B8F1030F4FF00A
:1007000003041FD0C36804FA0EF5AB438D6805FAE5
:100710000EF52B43B8F1020FC36013D16FF0030243
:1007200002EA560202440CF01C03D2F820800F2586
:100730009D4028EA05080D6905FA03F343EA08031A
:1007400013624A68036804FA0EF5AB4302F003052E
:1007500005FA0EF52B4312F4403F036045D0664A7C
:1007600013462B4C12680F2542F002021A601A68D9
:1007700002F00202019226F00302019B0CF00C032E
:1007800052F804809D40009F28EA050507FA03F30C
:100790002B4313514FF0B048D8F800204B6842EA81
:1007A0000B05DF0258BF22EA0B05164A1446C8F8AB
:1007B00000509F02126842EA0B0558BF22EA0B055F
:1007C0009F0325604FF00107D4F8802042EA0B0513
:1007D00058BF22EA0B05DB03C4F88050E26F42EAFF
:1007E0000B0558BF22EA0B05E56701360EF1020E34
:1007F0000CF1040C0A6832FA06F47FF45CAFBDE831
:10080000FC8F00BF040000580000FEA7002402581F
:1008100008040058002A08BF0904816170470000DD
:1008200001480068000C70470010005C0548006833
:10083000704700BF2848007802490A6810440860E1
:10084000704700BFBC00002480B5032000F076F89C
:1008500000F0BAF90F490A68C2F303220968D64BBF
:1008600001F00F019A5C595C02F01F02D040D34A9C
:1008700001F01F0120FA01F11160D14908600F2039
:1008800000F00AF808B1012080BD00F027F8002030
:1008900080BD00BF1844025870B50F4E3178C1B109
:1008A00004464FF47A70B0FBF1F0C5490968B1FB1A
:1008B000F0F000F099FC0F2C4FF001050AD848B970
:1008C0004FF0FF3000222146002500F017F8746039
:1008D00000E00125284670BD0000002481B00648D4
:1008E000016841F002010160006800F00200009020
:1008F000009801B0704700BFF444025880B5154B12
:100900001B68C3F3022C8CF0070EBEF1040F28BF46
:100910004FF0040EBCF103034FF0FF3C38BF00233F
:100920000CFA0EFE21EA0E0199400CFA03F39A43E9
:100930001143BDE8804000F0EBBF00BF05490A68E5
:100940004FF6FF031A4060F30A2203481043086081
:10095000704700BF0CED00E00000FA05B0B5104D87
:1009600029684907296805D401F00701081A18BF4A
:100970000120B0BD21F0070108432860FFF756FFB2
:10098000044655F8080C800407D4FFF74FFF001BFE
:10099000B0F57A7FF5D90120B0BD0020B0BD00BF11
:1009A0000C4802582DE9F843002800F0FE80044668
:1009B000804B186800F00F00884688420BD21868F8
:1009C00020F00F0040EA08001860186800F00F00DF
:1009D000404540F0EA802068B24F41070AD52169BE
:1009E000BA6902F07002914204D9BA6922F0700229
:1009F0001143B96101070AD56169FA6902F0700211
:100A0000914204D9FA6922F070021143F961C106DA
:100A10000AD5A169FA6902F4E062914204D9FA693F
:100A200022F4E0621143F96181060AD5E1693A6A6C
:100A300002F07002914204D93A6A22F07002114326
:100A4000396281070AD5E168BA6902F00F02914262
:100A500004D9BA6922F00F021143B961C10736D037
:100A6000B86920F47061D4E9010211430328B96127
:100A700005D0022807D1396889030DD495E039687B
:100A8000890109D491E00128396802D1C90503D44C
:100A90008BE0490740F189803969994621F00701C7
:100AA00008433861FFF7C2FE064641F288353869CF
:100AB00000F038006168B0EBC10F06D0FFF7B6FE5A
:100AC000801BA842F3D9032070E020684B468107C1
:100AD0000AD5E168BA6902F00F02914204D2BA69FC
:100AE00022F00F021143B961196801F00F0141456D
:100AF0000AD9196821F00F0141EA08011960196843
:100B000001F00F01414550D141070AD52169BA6969
:100B100002F07002914204D2BA6922F070021143CD
:100B2000B96101070AD56169FA6902F07002914260
:100B300004D2FA6922F070021143F961C1060AD5A4
:100B4000A169FA6902F4E062914204D2FA6922F4DE
:100B5000E0621143F96180060AD5E069396A01F063
:100B60007001884204D2396A21F07001084338626A
:100B700000F02AF8B969C1F303210F4A515CBB693F
:100B800003F00F03D25C01F01F0120FA01F102F023
:100B90001F000A4A21FA00F01060094A094800685B
:100BA0001160BDE8F843FFF777BE012001B0BDE852
:100BB000F08300BF00200052AE1900080C00002492
:100BC000080000240400002436490869C0F3C2006C
:100BD00003280CD0022828D048BB08688006374874
:100BE00058BF70470968C1F3C101C84070478A6A9D
:100BF000886AC0F3051CCB6A486B03F00103C0F39D
:100C0000CC00BCF1000F10FB03F000EE100AB8EEB0
:100C1000400A0ED002F00302022A0CD072B9086812
:100C200080060ED49FED241A15E0204870471E4818
:100C30007047002070479FED1F1A0CE09FED1C1AB3
:100C400009E008681D4AC0F3C10022FA00F001EE75
:100C5000100AB8EE411A02EE10CA9FED193AB8EE2A
:100C6000422A086B6FF35F2081EE021A02EE100A2F
:100C7000B8EE422A086BC0F3462000EE032AB7EE16
:100C8000000A013032EE000A21EE000A01EE100ADD
:100C9000B8EE411A80EE010ABCEEC00A10EE100A4E
:100CA000704700BF0044025800093D0040787D01B4
:100CB0000024744A20BCBE4B0024744C0090D00326
:100CC00000000039F8B5002800F0B481044600782F
:100CD000D74EC00721D12078800740F1B18030691C
:100CE00010F03801B06A3CD0182908BF5FEA807064
:100CF00037D0E068002831685CD021F01901084342
:100D00003060FFF793FD05463068400743D4FFF796
:100D10008DFD401B0228F7D9A0E1306900F03801B1
:100D2000B06A102905D018290AD100F00300022862
:100D300006D130688003CED560680028CBD179E138
:100D40006068002847D0B0F5803F06D0B0F5A02FEE
:100D500030685ED140F480203060306840F48030EC
:100D60005DE030684007E06802D5002800F062814D
:100D7000316821F0190108433060FFF757FD05463F
:100D80003068400707D4FFF751FD401B02284FF0A1
:100D90000300F5D963E1FFF743FD41F20301884207
:100DA00030D820697168402821F47C3145D141F464
:100DB000003044E021F001003060FFF737FD0546C8
:100DC000306840073CD5FFF731FD401B02284FF04B
:100DD0000300F5D943E1306820F48030306030689A
:100DE00020F480203060FFF721FD05463068800345
:100DF0007FF571AFFFF71AFD401B64284FF0030029
:100E0000F4D92CE1706820F0FE40216940EA0160CD
:100E100015E020F480303060306820F480203060AD
:100E2000FFF704FD0546306880033FF554AFFFF738
:100E3000FDFC401B6428F6D910E141EA00307060E7
:100E40002078C00653D5306900F03801B06A08290F
:100E500005D018290BD100F00300012807D1306814
:100E6000C00519D5E069802840F0E48014E0E0690D
:100E70000028306827D040F080003060FFF7D6FCB3
:100E800005463068C00507D4FFF7D0FC401B022898
:100E90004FF00300F5D9E2E0FFF7C2FC41F2030195
:100EA000884208D8206A7168202821F0F8411BD1B7
:100EB00041F080401AE0F06820F07C50216A40EA5E
:100EC0000160F06013E020F080003060FFF7AEFCBE
:100ED00005463068C0050AD5FFF7A8FC401B02286C
:100EE0004FF00300F5D9BAE041EA806070602078E5
:100EF000000723D560690028706F0ED040F0010014
:100F00007067FFF793FC0546706F800716D4FFF7F4
:100F10008DFC401B0228F7D9A0E020F0010070678B
:100F2000FFF784FC0546706F800707D5FFF77EFC4E
:100F3000401B02284FF00300F5D990E0207880068E
:100F400023D5A069002830680ED040F4805030606E
:100F5000FFF76CFC05463068800416D4FFF766FC8A
:100F6000401B0228F7D979E020F480503060FFF769
:100F70005DFC05463068800407D5FFF757FC401B31
:100F800002284FF00300F5D969E02078400753D4D8
:100F9000656A002D00F00D81306900F038001828D6
:100FA0006ED1B16A012D306B44D001F00302A36A07
:100FB0009A423FD1C1F30511E26A91423AD101460A
:100FC000226B6FF35F21013A914233D1C0F3462186
:100FD000626B013A91422DD1C0F30641A26B013AF6
:100FE000914227D1C0F30660E16B0139884221D1DB
:100FF000706BC0F3CC00A16C814200F0DA80F06A23
:1010000020F00100F062FFF711FC0546FFF70EFC2F
:10101000A842FBD0706B4FF6F8718843A16C40EA90
:10102000C1007063F06A40F00100F062C1E000BFEF
:1010300000440258012012E0D6F8000440F4807009
:10104000C6F80004FFF7F2FB0546D6F80004C00519
:1010500007D4FFF7EBFB401B6428F6D9032001B04F
:10106000F0BDA06860B3012806D00528306F40F0BD
:10107000A28040F004003067306F40F00100A0E033
:10108000306820F080703060FFF7D0FB022D0546FD
:101090000AD1306880012CD5FFF7C8FB401B02281D
:1010A0004FF00300F5D9DAE73068800140F1818024
:1010B000FFF7BCFB401B02284FF00300F4D9CEE73A
:1010C000306F20F001003067306F20F0040030678F
:1010D000FFF7ACFB054641F28837306F80077FF59C
:1010E00057AFFFF7A3FB401BB8424FF00300F4D902
:1010F000B5E7B06A40F2F3318843A16A226B084336
:10110000511E626B4FF47E4303EB4222E36A6FF39E
:101110005F2192B240EA0310B0625018A16B4FF405
:10112000FE0202EB014101F4FE010844E16B4FF0C5
:10113000FE4202EB016101F0FE41084430634FF6CC
:10114000F871F06A20F00100F062706B8843A16CC6
:1011500040EAC1007063F06A20F00C00216C084383
:10116000F062F06A20F00200616C0843F062F06AFD
:1011700040F48030F062F06A40F40030F062F06ACF
:1011800040F48020F062F06A40F00100F0623068C4
:1011900040F080703060FFF749FB04463068800102
:1011A00007D4FFF743FB001B02284FF00300F5D9DB
:1011B00055E7002053E720F001003067306F20F042
:1011C00004003067FFF732FB054641F28837306F85
:1011D00080073FF5DDAEFFF729FB401BB8424FF01B
:1011E0000300F4D93BE70000411E0020B0EB116F73
:1011F00001D001207047044A5160F021034B19705F
:10120000072190601160704710E000E023ED00E0DE
:1012100090F83C20012A4FF0020233D070B5012330
:10122000604E80F83C3080F83D20026842F48063D4
:101230005468B342936802BF24F470044D682C4391
:10124000B2F1804F24F070050C6845EA0405556042
:101250000BD04E4CA2421CBF4D4CA24205D04D4C6F
:10126000A2421CBF4C4CA2420ED123F080038968DD
:10127000194391600121002280F83D1080F83C2044
:10128000BDE8704010467047444CA242EDD0444C3B
:10129000A24218BFB242E8D0ECE700BF60B310B57D
:1012A000044690F83D0028B9002084F83C00204610
:1012B00000F024F8022084F83D00211D206800F091
:1012C00035FA012084F8480084F83E0084F83F0095
:1012D00084F8400084F8410084F8420084F8430018
:1012E00084F8440084F8450084F8460084F84700F8
:1012F00084F83D00002010BD0120704700689A4925
:10130000884218BF704781B00548016841F020014C
:101310000160006800F020000090009801B0704764
:10132000E844025890F83D1001291DD1022180F8AF
:101330003D100168B1F1804F0BD0144881421CBFB1
:101340001348814205D0134881421CBF1248814294
:101350000CD18868144A0240062A4FF0000018BFDA
:10136000B2F5803F0BD17047012070470B48814296
:10137000EFD00B488142ECD00A488142E9D008689E
:1013800040F0010008600020704700BF00040040EA
:1013900000080040000C0040001800400000014020
:1013A00000400140000401400700010001460068C0
:1013B000026A41F211131A4208D1026A40F2444310
:1013C0001A4203D1026822F00102026001220020C9
:1013D00081F83D207047FEE72DE9F04F87B04FF0D0
:1013E000000A4D484D4ECDF818A0002201684C4C23
:1013F000022741F080010160016801F08001019144
:101400000199016841F001010160016801F00101E9
:1014100001910199016841F008010160016801F042
:10142000080101910199016841F002010160016820
:1014300001F0020101910199016841F01001016080
:101440000221006800F01000019001982046B0478A
:1014500004F5406540F2112101222846A1464FF0D3
:10146000010BB0470E2100222846B04704F58064E6
:10147000C82101222046B0474FF440710022204687
:10148000B04709F58058022101224046B047CDE916
:10149000027B02AFCDF810A04FF0030A214E484660
:1014A000CDF814A03946B0474FF40070CDE9020BD7
:1014B0000020CDE90400284639464FF00009B04726
:1014C0001120CDE9020B28463946CDE904BAB047D0
:1014D0000E20CDE9020B28463946CDE9049AB047E3
:1014E000C820CDE9020B20463946CDE904BAB04701
:1014F0004FF44070CDE9020B20463946CDE9049AFD
:10150000B0470220CDE9020B40463946CDE904BA86
:10151000B04707B0BDE8F08FE04402581508000856
:1015200000000258890600081FB500240D480E4926
:10153000F0220394CDE90144C0E900124FF6FF7197
:10154000C0E902418461FFF7A9FE08B1FFF798F8EE
:10155000044801A901940394FFF75AFE08B1FFF76C
:101560008FF81FBD7000002400140040FEE7FEE766
:1015700070477047FFF75EB9B0B59CB009A83B4C07
:101580003B4D4C21FEF7F8FE01A82021FEF7F4FEAA
:101590000220FFF7E3F900200090286820F0010006
:1015A0002860286800F001000090206840F4404066
:1015B0002060206800F4404000900098206880047B
:1015C000FCD52C48215841F002012150205800F050
:1015D00002000090009800200090206840F44040F5
:1015E0002060206800F440400090286840F001002E
:1015F0002860286800F001000090009820688004AE
:10160000FCD5012009904FF480300A90022005217A
:10161000CDE912001491C021CDE91510CDE91700D4
:1016200008240025199409A8CDE91A55FFF74AFBAB
:1016300018B1EFF3108072B6FEE73F20019003204F
:10164000CDE90205402004944FF48061CDE9050006
:10165000CDE9071001A80421FFF7A4F918B1EFF3B1
:10166000108072B6FEE71CB0B0BD00BF184802582B
:101670002C040058DCFCFFFF23480168214A41F498
:1016800070010160106800F00F00062804D810688F
:10169000072161F30300106010B51C4801681C4C61
:1016A00041F00101016000210161036823400360F2
:1016B00013681B0704D51368072464F3030313603E
:1016C000144A8161C16101628262134AC262134A93
:1016D000026341638263C16302644164026822F46D
:1016E0008022026001660E480068B1EB507FBDE8C1
:1016F000104002D101200B49086043F2D2000A4990
:10170000086070470020005288ED00E00044025855
:101710007FEDF6EA000202020000FF0180020101F3
:101720000010005C0881005100400052F0B5B0F19B
:10173000804F0368334A05D0334CA0421CBF334C62
:10174000A04234D123F070034C68234302F5804457
:10175000041BB4FA84F44FEA541C02F58844041BB9
:10176000B4FA84F44FEA541E02F59044041BB4FA10
:1017700084F4640923F44073CD682B4323F0800381
:101780004E690D6833438F68002C0360C762856221
:1017900008BFBEF1000F05D190421CBF02F5806268
:1017A00090422BD10969016301214161F0BD184CC0
:1017B000A042C7D0174CA04218BF9042C2D002F539
:1017C0008044154D041BB4FA84F44FEA541C02F50E
:1017D0008844041BB4FA84F44FEA541E02F5904482
:1017E000041BB4FA84F4A8424FEA5414C2D00B4D3F
:1017F000A842BFD00A4DA842BCD0BFE7BCF1000F41
:10180000D2D0CFE7000001400004004000080040B3
:10181000000C00400004014000400140004801402D
:1018200000440140FEE7E0B5010E8DF80710010C01
:101830008DF80610010A8DF8051001A98DF8040035
:10184000042000F001F88CBD2DE9F0470F462E4C26
:101850002E4D814604F5006010210122A847082181
:1018600000222046A84704F54066022100223046A7
:10187000A8470120FEF7EAFE082100222046AA46DA
:10188000A8470120FEF7E2FEA7F1010824E018F8BE
:10189000097000251CE078B28021B0F1FF3F01DD26
:1018A000002200E001222046FEF7B4FF0120FEF7EF
:1018B000CDFE022101223046FEF7ACFF0120FEF7EB
:1018C000C5FE0221002230467F00FEF7A3FF01354E
:1018D000072DE0D9A9F10109B9F1000FD7D1802175
:1018E00000222046D0470120FEF7B0FE0821012249
:1018F0002046D0470120FEF7A9FE082100222046FD
:101900005346BDE8F0471847000402581508000880
:1019100000F00F02054B1A44054BB0F1FF3F4FEAB0
:101920000111C8BFC2181170704700BF14ED00E06C
:1019300000E400E0154CFEF787FFFFF71DFEFFF700
:101940004BFDFFF7F1FDFEF77BFD9FED110AFEF762
:10195000A7FD4FF47A70FEF76DFE022101222046AA
:10196000FEF758FF4FF47A70FEF764FE0221002262
:101970002046FEF74FFF4FF47A70FEF75BFE022120
:1019800001222046FEF746FFECE700BF00000258A8
:1019900000003443F1EE100A4FF6FF71C0F2C0317F
:1019A00020EA010040F04070E1EE100A70470000AC
:1019B00000000102030401020304060708090000F5
:1019C000E01900080000002410000000D402000804
:1019D000F019000810000024B0060000F002000812
:1019E00001000000100000000090D0030090D00320
:040000050800029954
:00000001FF
